:020000040000FA
:1000000064EF0DF003016251070B006E6231016E67
:10001000013201321F0E011601506425E96E000EF7
:100020006521EA6E016A012A002A01D00136002EFC
:10003000FDD7635303E00150EF1203D0011E0150BE
:10004000EF160001000C03014D6B4E6B4D6B4D51D3
:1000500007081EE34E6B4E51070818E34D51080D7B
:10006000F350506B4F6F036A4E514F25016E505144
:10007000032201C051F301C062F3636B656B050E8F
:10008000646F0001BFDF03014E2BE5D74D2BDFD797
:100090000001000C136A146A156A166A176A186A56
:1000A000196A1A6A1B6A1C6A1D6A1E6AF30E1F6EA1
:1000B000206A216A226A236A246A256AE00E266E73
:1000C000276A286E296A2A6A2B6A240E2C6EFF0E74
:1000D0002D6E240E2E6E2F6E306EFF0E316E240E9E
:1000E000326E336A4E0E346E910E356E366EFF0EE2
:1000F000376E910E386E396E660E3A6E3B6A870E19
:100100003C6E450E3D6E370E3E6E180E3F6EE40E91
:10011000406EA20E416EE10E426E436A600E446E66
:10012000950E456E930E466E950E476E990E486E6F
:10013000590E496E3E0E4A6E4B6A4C6A4D6AE00E8D
:100140004E6E4F6A506A516A526A536A546A810EFF
:10015000556E420E566E240E576E180E586E596A22
:100160005A6A5B6A5C6A5D6E240E5E6E420E5F6E5A
:10017000810E606F616B626B636B920E646F540EE5
:10018000656F380E666FFF0E676F380E686F540E1E
:10019000696F920E6A6F6B6B100E6C6F6D6F6E6F86
:1001A000FF0E6F6F100E706F716F726F736B746BE9
:1001B000756B060E766F010E776F786B796B7A6BC5
:1001C0007B6B7C6B7D6B100E7E6F7F6F806F816BA6
:1001D000826B836B846B856B030E866F876F886B76
:1001E000896B8A6B8B6B800E8C6F400E8D6F200E2F
:1001F0008E6F180E8F6F040E906F020E916F010EAE
:10020000926F936B3C0E946F420E956FA10E966F9A
:10021000910E976F890E986F420E996F3C0E9A6FF0
:100220009B6B9C6B010E9D6FFF0E9E6F410E9F6F2F
:10023000210EA06FA16BA26BA36B610EA46F910E38
:10024000A56F890EA66FA76F850EA86F830EA96F85
:10025000010EAA6FAB6B7E0EAC6F990EAD6FAE6FD9
:10026000AF6F810EB06FB16F460EB26FB36B040EFD
:10027000B46FFF0EB56F440EB66F240EB76F140E39
:10028000B86F0C0EB96F040EBA6FBB6B8E0EBC6FDD
:10029000910EBD6FBE6FBF6FC06FC16FE20EC26FB8
:1002A000C36B4E0EC46F910EC56FC66FC76FC86F1C
:1002B000C96F7E0ECA6FCB6BE00ECC6F900ECD6F08
:1002C000880ECE6F870ECF6FD06BD16BD26BD36B96
:1002D000660ED46F990ED56FD66FD76FD86FD96F62
:1002E000660EDA6FDB6B7E0EDC6F890EDD6FDE6F04
:1002F000DF6FE06FE16F720EE26FE36BE46BE56B53
:10030000E66B660EE76FE86BE96BEA6BEB6BEC6B29
:10031000ED6BEE6BEF6F010EF06FF16BF26BF36B49
:10032000F46BF56B820EF66F440EF76F280EF86FC4
:10033000100EF96FFA6BFB6BFC6BFD6B240EFE6FFE
:10034000FF6F0101006F016F026B036B046B100EF6
:10035000056F280E066F440E076F820E086F096B3B
:100360000A6B0B6B0C6B600E0D6F900E0E6F8D0E8B
:100370000F6F800E106F600E116F126B136B780E83
:10038000146FA50E156F166F176F990E186F810EEB
:10039000196F5E0E1A6F1B6B3F0E1C6F480E1D6FA0
:1003A000880E1E6F1F6F206F480E216F3F0E226F49
:1003B000236B760E246F890E256F266F276F286FAB
:1003C000296FFF0E2A6F2B6B240E2C6F420E2D6FA0
:1003D000810E2E6F2F6F306F420E316F3C0E326FD9
:1003E000336B346F420E356F810E366F376F386F57
:1003F000396FFF0E3A6F3B6B810E3C6F3D6F910E74
:100400003E6F3F6F406F416FFF0E426F436B800E38
:10041000446F456F900E466F476F486F496FFF0EF0
:100420004A6F4B6B2C0E4C6F4A0E4D6F890E4E6F00
:10043000810E4F6F506F420E516F3C0E526F536BD7
:10044000FF0E546F080E556F566F576F586F596FE8
:10045000FF0E5A6F5B6B5C6B810E5D6F5E6FFF0E04
:100460005F6F810E606F616F626B636B800E646F94
:10047000656FFC0E666F820E676F810E686F696F25
:10048000820E6A6F6B6B810E6C6F420E6D6F240E65
:100490006E6F180E6F6F080E706F040E716FFF0E87
:1004A000726F736B010E746F756F766F776F786F05
:1004B000796FFF0E7A6F7B6B7F0E7C6F800E7D6F86
:1004C0007E6F700E7F6F800E806F816F7F0E826FE8
:1004D000836BFF0E846F020E856F040E866F180EFD
:1004E000876F200E886F400E896FFF0E8A6F8B6BAF
:1004F0003C0E8C6F420E8D6F810E8E6F8F6F906FE2
:10050000420E916F3C0E926F936B300E946F480EBB
:10051000956F840E966F976F986F996FFF0E9A6F15
:100520009B6B3D0E9C6F420E9D6F850E9E6F890EDC
:100530009F6F810EA06F420EA16F3C0EA26FA36B46
:10054000310EA46F4A0EA56F840EA66FA76FA86F19
:10055000A96FFF0EAA6FAB6B4E0EAC6F910EAD6F15
:10056000AE6FAF6FB06FB16F660EB26FB36B800ED0
:10057000B46FB56FB66FFF0EB76F800EB86FB96FFF
:10058000BA6FBB6BFC0EBC6F020EBD6F010EBE6F6F
:10059000BF6FC06F020EC16FFC0EC26FC36BF80E4F
:1005A000C46F040EC56F020EC66F010EC76F020E38
:1005B000C86F040EC96FF80ECA6FCB6BFE0ECC6FFE
:1005C000010ECD6FCE6F0E0ECF6F010ED06FD16FBB
:1005D000FE0ED26FD36B810ED46F420ED56F240EF8
:1005E000D66F180ED76F240ED86F420ED96F810EBA
:1005F000DA6FDB6B800EDC6F400EDD6F200EDE6F7E
:100600001F0EDF6F200EE06F400EE16F800EE26F75
:10061000E36B810EE46FC10EE56FA10EE66F910EE4
:10062000E76F890EE86F850EE96F830EEA6FEB6B5B
:10063000EC6BED6BEE6BF30EEF6FF06BF16BF26B3F
:10064000F36BF46BF56BE00EF66FF76BF86FF96B0D
:10065000FA6BFB6B240EFC6FFF0EFD6F240EFE6F1A
:10066000FF6F0201006FFF0E016F240E026F036B1C
:100670004E0E046F910E056F066FFF0E076F910E01
:10068000086F096F660E0A6F0B6B0C6B460E0D6FD1
:10069000300E0E6F180E0F6F040E106F620E116F7A
:1006A000010E126F136B146B050E156F420E166F51
:1006B000A50E176FA90E186F510E196F2E0E1A6F17
:1006C0001B6B1C6B1D6BE00E1E6F1F6B206B216B79
:1006D000226B236B246B810E256F420E266F240E36
:1006E000276F180E286F296B2A6B2B6B2C6B2D6FC5
:1006F000240E2E6F420E2F6F810E306F316B326BD6
:10070000336B920E346F540E356F380E366FFF0E0A
:10071000376F380E386F540E396F920E3A6F3B6B4D
:10072000100E3C6F3D6F3E6FFF0E3F6F100E406F1F
:10073000416F426F436B446B456BC00E466F200E9A
:10074000476F486B496B4A6B4B6B4C6B4D6B100E94
:100750004E6F4F6F506F516B526B536B546B556BA9
:10076000030E566F576F586B596B5A6B5B6B800E4D
:100770005C6F400E5D6F200E5E6F180E5F6F040E93
:10078000606F020E616F010E626F636B3C0E646FEF
:10079000420E656FA10E666F910E676F890E686FCE
:1007A000420E696F3C0E6A6F6B6B6C6B010E6D6F66
:1007B000FF0E6E6F410E6F6F210E706F716B726B5B
:1007C000736B610E746F910E756F890E766F776F14
:1007D000850E786F830E796F010E7A6F7B6B7E0EBC
:1007E0007C6F990E7D6F7E6F7F6F810E806F816F42
:1007F000460E826F836B040E846FFF0E856F440E6E
:10080000866F240E876F140E886F0C0E896F040E8E
:100810008A6F8B6B8E0E8C6F910E8D6F8E6F8F6FBC
:10082000906F916FE20E926F936B4E0E946F910EDC
:10083000956F966F976F986F996F7E0E9A6F9B6BFF
:10084000E00E9C6F900E9D6F880E9E6F870E9F6FBF
:10085000A06BA16BA26BA36B660EA46F990EA56F24
:10086000A66FA76FA86FA96F660EAA6FAB6B7E0EFF
:10087000AC6F890EAD6FAE6FAF6FB06FB16F720EB0
:10088000B26F00010FEF07F05EC360F35DC35FF36B
:1008900003015FC3E9FF60C3EAFF5CC3ECFFED52F5
:1008A0005BC3EFFF020E5F25E96E000E6021EA6E6A
:1008B000EC6AED52EF6A5FC301F060C302F0000121
:1008C00007EF05F0020E03015325E96E000E5421D7
:1008D000EA6EECCF58F3ED52EFCF57F357530CE1DC
:1008E00058530AE1020E5525E96E000E5621EA6EB4
:1008F000EC6AED52EF6A1BD0020E5525016E000E18
:100900005621036E586F020E5325E96E000E5421D6
:10091000EA6EECCF03F0ED52EFCF59F358C3EAFF84
:1009200001C0E9FF03C0ECFFED5259C3EFFF020E17
:100930005325E96E000E5421EA6E56C3ECFFED52CA
:1009400055C3EFFF000114EF05F0030155C3E9FFA4
:1009500056C3EAFF58C3ECFFED5257C3EFFF000147
:10096000000CF5C24EF3F4C24DF303014D5303E105
:100970004E53D8B486D04DC3E9FF4EC3EAFFECCF47
:1009800054F3ED52EFCF53F354BF6DD04DC3E9FF95
:100990004EC3EAFFECCF55F3ED52EFCF54F355536E
:1009A00003E14C51545D5FE34DC3E9FF4EC3EAFFE1
:1009B000ECCF03F0ED52EFCF51F303C052F3040E2E
:1009C0004C25525303E1515D3EE03DE34C51515DF6
:1009D000536F000E5259546F040E535D556F000E45
:1009E0005459566F040E4D25576F000E4E21586F07
:1009F0004C515725596F000E58215A6F56C35CF35E
:100A000055C35BF35E6F59C35DF300013DD702C070
:100A100050F301C04FF34EC354F34DC353F350C3CF
:100A200056F34FC355F34ED703014CC353F3800E17
:100A30004EC356F34DC355F3586F4CC357F30001E3
:100A400084DF0FD0030151C353F3800E5225546F3E
:100A50004EC356F34DC355F3586F51C357F30001BE
:100A600074DF03010ED0020E4D25E96E000E4E21FB
:100A7000EA6EECCF03F0ED52EFCF4DF303C04EF32F
:100A800075D74D5307E14E5305E1000E016E026E1E
:100A900009D008D0040E4D25016E000E4E21036EC4
:100AA000026E00D00001000C53C312F052C311F0CB
:100AB00051C310F050C30FF05AEF06F00301586B0A
:100AC000596B010E5A6FDA6AD96A030E5D6F500EC8
:100AD0005C6F030EEA6E540EE96E5DC3E2FF5CC309
:100AE000E1FF5AC35BF3D890E550EE02F350582370
:100AF000F45059235B2FF7D758C3DEFF59C358F37F
:100B0000596BD8B0592B5C2BD8B45D2B5A2B5A514A
:100B10000508DFE10001C4EF05F0016A026A006A1E
:100B2000036A0301565102E1555118E0100E576F48
:100B3000D89053375437003603365651035C02E1E0
:100B40005551005C07E35551005ED8A0030656518D
:100B5000035ED88001360236572FEAD70001E5EF51
:100B600005F012C053F311C052F310C051F30FC07F
:100B700050F3410E0301576FC60E566F4E0E556F60
:100B80006D0E546F00019AD7390E030100240F6EC9
:100B9000300E0120106E000E0220116E000E032098
:100BA000126E11C000F012C001F0026A036A12C096
:100BB00052F311C051F312C054F311C053F37F0E1E
:100BC000566FFF0E556F0001A8D700C001F003C09B
:100BD00002F0000C0301526BF8C254F3F7C253F356
:100BE00054C303F053C355F354C356F353C3E9FF3F
:100BF00054C3EAFF5051EF5C12E154C303F053C3F6
:100C000058F354C359F3010E5325E96E000E5421D5
:100C1000EA6E5151EF5C03E1010E016E19D053C32E
:100C200055F354C356F3020E5325E96E000E5421BA
:100C3000EA6EECCF03F0ED52EFCF53F303C054F361
:100C4000522B0201F6510301525DCAE3000E016E00
:100C5000000173EF06F0F9C2E9FFFAC2EAFFEFCF35
:100C600052F3FAC203F0F9C253F30301FAC254F388
:100C7000010E5325E96E000E5421EA6EEF50520327
:100C8000F3CF55F3036A0201FDC2E9FF03C0EAFF97
:100C9000010EEF240301555D4C6F4D6B4E6B4F6B96
:100CA0004FC353F34EC352F34DC351F34CC350F3F0
:100CB0000001FAD656DF03010150070B4A6F00010D
:100CC00050DF03010150070B4B6FFF0E4C27D8A0DC
:100CD0004D27D8A04E27D8A04F274AC350F34BC367
:100CE00051F3000177D70152B6E10301FBC2E9FFDE
:100CF000FCC2EAFF4AC3EFFFFBC250F30301FCC290
:100D000051F3010E5025E96E000E5121EA6E4BC3DE
:100D1000EFFF0001000C040E03013F6F406F030E54
:100D20000201FD6FFE91040E03014C6F000119DEFC
:100D300002C010F301C00FF3040E03014C6F000159
:100D400010DE02C012F301C011F3040E03014C6F58
:100D5000000107DE02C014F301C013F303010FC347
:100D6000E9FF10C3EAFF3FC3EFFF010E0F25E96E55
:100D7000000E1021EA6E40C3EFFF400711C3E9FFE8
:100D800012C3EAFF3FC3EFFF010E1125E96E000E0B
:100D90001221EA6E40C3EFFF400713C3E9FF14C3FB
:100DA000EAFF3FC3EFFF010E1325E96E000E142189
:100DB000EA6E40C3EFFF020E1125E96E000E12210C
:100DC000EA6E14C3ECFFED5213C3EFFF020E0F25C2
:100DD000E96E000E1021EA6E12C3ECFFED5211C352
:100DE000EFFF10C3F8F20FC3F7F214C3FAF213C304
:100DF000F9F2030E0201F66F00012DDF10EF07F08C
:100E0000CD6A000ECA6E000ECB6E936E8A6A926A2D
:100E1000896AFF0E926E23EC00F04AEF00F07BD758
:100E200034EF0EF000000000000C8A809390FADF8F
:100E30008A90939028EF07F08A829392F3DF8A9248
:100E4000939230EF07F0010E0301616F0001EDD7BF
:100E5000010E0301616F6151605D05E30001ECD794
:100E60000301612BF8D7000162EF08F08A9A939A88
:100E7000D9DF8A8A939A63EF08F0006A016A030156
:100E80006051D89061B100260032013261B3002672
:100E90000032013261B500260032013261B700260E
:100EA0000032013261B900260032013261BB0026F6
:100EB0000032013261BD00260032013261BF0026DE
:100EC0000032013200016FEF08F003016251070B9D
:100ED000006E6231016E013201321F0E01160150A7
:100EE0006325E96E000E6421EA6EEFCF01F0002A5F
:100EF00001D00132002EFDD70001000C0301615327
:100F000002E18A9801D08A88939800018BDF8CEFE8
:100F100008F08A84939486DF8A9493948DEF08F086
:100F20008A8693967FDF8A96939692EF08F0030E57
:100F3000EA6E680EE96EEF500DE0060E016E006A73
:100F4000002EFED7012EFBD77B0E006E002EFED7A3
:100F5000EF2EF3D746EF08F0030169C300F06AC330
:100F600003F07C0E6A5D05E1100E005C00011AE0E2
:100F700003017C0E035C05E1110E005C000119E029
:100F800003017C0E035C05E1120E005C000118E019
:100F900003017C0E035C05E1160E005C000118E005
:100FA00003011ED00201FD2D01D001D0FD6B030114
:100FB00017D00201FD5302E0010EFD6F030110D0B6
:100FC0000201FD51030802E0020EFD6F030108D08B
:100FD0000201FD51020802E0030EFD6F030100D083
:100FE0000001000CFF0E946E82CF68F303010D51D7
:100FF000685D2DE0948082A008D07C0E6A6F100E90
:10100000696F0001A9DF20D00301948282A208D079
:101010007C0E6A6F110E696F00019EDF15D003010F
:10102000948482A408D07C0E6A6F120E696F00014E
:1010300093DF0AD00301948C82AC07D07C0E6A6FD8
:10104000160E696F000188DF030168C30DF300010C
:1010500047EF08F00301646B656B666B676B676B4A
:10106000666B656B646B6751635D1BE30BE16651F7
:10107000625D17E307E16551615D13E303E16051D0
:10108000645D0FE2010E686F000151D7ABD7010E0E
:1010900003016427D8B0652BD8B4662BD8B4672B6E
:1010A000E2D70001000C070E03015D6F5E6B5F91DC
:1010B0005E6B5EBF03D05E5107083FE35EC360F323
:1010C0000001C1D6D3D6070E03015D6F5DBF28D0E6
:1010D0005F915DC360F3080E616F0001CED60150D1
:1010E0000301616B606F036A5E516025016E61519F
:1010F000032201C062F3646B050E636F0001E5DE3D
:1011000001A003D003015F810001000E03015FB164
:10111000010E616F0001F2D6FCD603015D07D6D740
:101120000001FED60301636B626B616B040E606F9E
:10113000000190DF03015E2BBCD70001000C03010E
:1011400002517F0825E310E10151FF0821E30CE182
:101150000051FF081DE308E10201FF51FA08D8B071
:1011600002D0030115D00301010E0201FF27D8A010
:1011700003D00301002B0201D8A403D00301012BEB
:101180000201D8A403D00301022B020107D00301FE
:10119000026B016B006B020E0201FF6F0001EEEFAC
:1011A0000CF0040E03014C6F0001B1EC04F002C01E
:1011B0004BF301C04AF30201FD51FC0FD8B0A4D09B
:1011C000040F00019DEF09F00301F9C2E9FFFAC223
:1011D000EAFF010EEF5C070B4BC3EAFF4AC3E9FFCE
:1011E000EF6E010E4A25016E000E4B214F6FF9C2C2
:1011F00050F30301FAC251F3010E5025E96E000EBF
:101200005121EA6EEFCF52F34FC3EAFF01C0E9FF6D
:1012100052C3EFFF020178D00301F9C2E9FFFAC21D
:10122000EAFF010EEF24070B4BC3EAFF4AC3E9FFB5
:10123000EF6E010E4A25016E000E4B214F6FF9C271
:1012400050F30301FAC251F3010E5025E96E000E6E
:101250005121EA6EEFCF52F34FC3EAFF01C0E9FF1D
:1012600052C3EFFF020150D00301F9C2E9FFFAC2F5
:10127000EAFFEFCF52F34BC3EAFF4AC3E9FF52C381
:10128000EFFF010E4A25016E000E4B214F6FF9C290
:1012900050F30301FAC251F3010E5025E96E000E1E
:1012A0005121EA6E010EEF24070B4FC3EAFF01C084
:1012B000E9FFEF6E020128D00301F9C2E9FFFAC28B
:1012C000EAFFEFCF52F34BC3EAFF4AC3E9FF52C331
:1012D000EFFF010E4A25016E000E4B214F6FF9C240
:1012E00050F30301FAC251F3010E5025E96E000ECE
:1012F0005121EA6E010EEF5C070B4FC3EAFF01C0FC
:10130000E9FFEF6E020100D0FAC24DF30301F9C20A
:101310004CF3020E4C25E96E000E4D21EA6E4BC3D4
:10132000ECFFED524AC3EFFF4BC3FAF24AC3F9F2A6
:101330000201F62B000197EF0AF0E824F76AF7366E
:10134000550FF66E130EF7220A00F550FA6E0800DC
:10135000F550F96EC81118126812B81203014991BC
:101360000201FD51FC0FD8B0A6D0040F00019DEF83
:101370000AF0F8C203F0F7C24AF30301F8C24BF3D4
:10138000F7C2E9FFF8C2EAFFEF50070807E10301DF
:10139000F7C2E9FFF8C2EAFFEF6A06D00301F7C21D
:1013A000E9FFF8C2EAFFEF2A020185D0F8C203F094
:1013B000F7C24AF30301F8C24BF3F7C2E9FFF8C2E0
:1013C000EAFFEF5208E10301F7C2E9FFF8C2EAFFC2
:1013D000070EEF6E06D00301F7C2E9FFF8C2EAFF7D
:1013E000EF06020168D0F8C203F0F7C24AF3030126
:1013F000F8C24BF3010E4A25E96E000E4B21EA6E4E
:10140000EF520EE1F7C24AF30301F8C24BF3010EAB
:101410004A25E96E000E4B21EA6E070EEF6E0CD0E6
:10142000F7C24AF30301F8C24BF3010E4A25E96EF5
:10143000000E4B21EA6EEF0602013DD0F8C203F028
:10144000F7C24AF30301F8C24BF3010E4A25E96ED5
:10145000000E4B21EA6EEF5007080DE1F7C24AF388
:101460000301F8C24BF3010E4A25E96E000E4B2131
:10147000EA6EEF6A1DD0F7C24AF30301F8C24BF3DC
:10148000010E4A25016E000E4B214D6FF7C24EF33F
:101490000301F8C24FF3010E4E25E96E000E4F21F5
:1014A000EA6E010EEF244DC3EAFF01C0E9FFEF6EC3
:1014B000020101D0020103014991F7C24AF3F8C2C7
:1014C0004BF3F7C2E9FFF8C2EAFFEFCF4CF3FCC2DF
:1014D00003F0FBC24DF30301FCC24EF3FBC2E9FF74
:1014E000FCC2EAFFEF504C5D1EE1F7C24FF303016F
:1014F000F8C250F3010E4F25E96E000E5021EA6E3E
:10150000EFCF51F3FCC203F0FBC252F30301FCC264
:1015100053F3010E5225E96E000E5321EA6EEF508F
:10152000515D01E1498149A105D000013AD62BEC7A
:1015300006F0030100010EEF0DF0E824F76AF7361C
:10154000550FF66E150EF7220A00F550FA6E0800D8
:10155000F550F96E7213AC13E6133C140301496B9A
:101560004C6B000123EC00F0F8C24BF3F7C24AF3D6
:1015700003014AC34DF34BC34EF34AC3E9FF4BC3C8
:10158000EAFFEF50080DF350516B506F4BC303F05F
:101590004AC352F34BC353F3010E4A25E96E000EC2
:1015A0004B21EA6E036AEF505025016E5151032220
:1015B00001C055F301C062F3010E636F656B050E48
:1015C000646F000102EC00F003014AC34DF34BC30A
:1015D0004EF3020E4A25E96E000E4B21EA6EECCF67
:1015E00003F0ED52EFCF4AF303C04BF3492B020156
:1015F000F6510301495DBDE3FBC24DF30301FCC29B
:101600004EF3FBC2E9FFFCC2EAFFEF50080DF350B6
:10161000516B506FFCC203F0FBC252F30301FCC2DA
:1016200053F3010E5225E96E000E5321EA6E036A50
:10163000EF505025016E5151032201C055F301C0F6
:1016400062F3010E636F656B050E646F000102ECBF
:1016500000F003014C6B0E514C5D0DE2000123DDE7
:101660000301636B626B616B040E606F0001F2DC5F
:1016700003014C2BF0D7000139EF0DF0010E0301EF
:10168000496FF7C24CF30301F8C24DF3020E4C252B
:10169000E96E000E4D21EA6EECCF03F0ED52EFCF74
:1016A0004AF303C04BF34AC34CF34BC34DF34AC355
:1016B000E9FF4BC3EAFFEFCF4EF3F8C203F0F7C2E6
:1016C0004FF30301F8C250F3F7C2E9FFF8C2EAFF93
:1016D000EF504E5D20E14AC351F34BC352F3010E6C
:1016E0004A25E96E000E4B21EA6EEFCF53F3F8C2A4
:1016F00003F0F7C254F30301F8C255F3010E542569
:10170000E96E000E5521EA6EEF50535D04E10201CF
:10171000FE8119D003014AC34CF34BC34DF3020EB3
:101720004A25E96E000E4B21EA6EECCF03F0ED5234
:10173000EFCF4AF303C04BF3492B0201F6510301EB
:10174000495DB1E3020100013AEF0DF054C356F3D5
:1017500053C355F356C303F0030155C3E9FF56C302
:10176000EAFFEF5206E0552BD8B4562B0001F2D712
:1017700003015351555D006E54515659036E00C01C
:1017800001F0026E000190EF0CF00301556B566BF7
:10179000576B5891596B5A6B5B6B5C6B566B565120
:1017A00006084FE3556B5551070849E3010E5625CE
:1017B000576F5551080DF3505E6B5D6F036A5651BC
:1017C0005D25016E5E51032201C05FF35551080D86
:1017D000F350616B606F036A57516025016E615170
:1017E000032201C062F3646B050E636F000165ECB8
:1017F00007F05FC362F30301636B01B0632B656B9A
:10180000050E646F000102EC00F003015551080D54
:10181000F3505E6B5D6F036A57515D25016E5E513B
:10182000032201C05FF301C062F3636B656B050EB9
:10183000646F000102EC00F00301552BB4D7562B66
:10184000AED7556B5551070836E3070ED88055556E
:101850005B6F010E596F5B51016E04E0D8905937F0
:10186000012EFCD7595154155C6F5B51016E04E099
:10187000D8905C33012EFCD758915CB158815551FA
:10188000080DF3505E6B5D6F070E5D25016E000E57
:101890005E21036E01C05FF3000E58B1010E01C05E
:1018A00062F3636F656B050E646F000102EC00F07C
:1018B0000301552BC7D75A6B0201B55305E1B4514B
:1018C00003015A5D10E20201000153EC08F003012C
:1018D000636B626B616B040E606F00012AEC08F0B1
:1018E00003015A2BE9D70001000C0301536B536B22
:1018F0005351070806E3546B000147DF0301532BE4
:10190000F7D70001DDEF0CF003014C6B4D6B4F6B13
:10191000506B516B4AC354F349C353F3000116D7BC
:1019200001C04CF34BC3B3F20201B331006E00327D
:101930003F0E00160050B56BB46F03014D6B4C5158
:101940004D5D39E2036A4D514925E96E4A51032044
:10195000EA6EEFCF4EF3200E4E5D4F6F506B4F3758
:1019600050374F3750374F375037F80E4F17070E55
:101970004F27000E5023516B51BF03D05151070820
:1019800018E3036A5151E8BE03064F5D536F0350DD
:101990005059546F130E5325E96E000E5421EA6E10
:1019A000EFCF52F352C354F30001EFDE0301512B8A
:1019B000E3D74D2BC4D7000198D7000C0301406B2F
:1019C000436B446B456B466B476B486B3F310E6F07
:1019D0000E333F0E0E1700019FEF08F0F8C242F3DE
:1019E000F7C241F30201FEB147D00301406B02018F
:1019F000F6510301405D3BE241C3E9FF42C3EAFF08
:101A0000EFCF43F3010E4125E96E000E4221EA6E4D
:101A1000EFCF44F3405304E10001A0D410D0030100
:101A200041C3E9FF42C3EAFF45C3EFFF010E412571
:101A3000E96E000E4221EA6E46C3EFFF000143C388
:101A400045F344C346F3030141C349F342C34AF398
:101A5000020E4125E96E000E4221EA6EECCF03F042
:101A6000ED52EFCF41F303C042F3402BC0D700014A
:101A700075D504D626D002010301486B476B485345
:101A800014E14751F90811E3000153EC08F0030198
:101A9000636B626B616B040E606F00012AEC08F0EF
:101AA0000301472BD8B4482BEAD7000123EC00F000
:101AB000030E03014A6F496F1E0E4B6F000124DFB6
:101AC00001D07CD73BEF0EF0F86AD09E030E0201E6
:101AD000F56F6B0EF46F040E03016C6F910E6B6F5C
:101AE0006E6B6D6B0001EA6AE96AC150C00B0F09A9
:101AF000C16E070EB46E0D6A0E6A320E0201B36F2C
:101B0000B46BB56BB66BB76BB86BB96BBA6BBB6BC1
:101B1000BC6BBD6BBE6BBF6BC06BC16BC26BC36B71
:101B2000C46BC56BC66BC76BC86BC96BCA6BCB6B21
:101B3000CC6BCD6BCE6BCF6BD06BD16BD26BD36BD1
:101B4000D46BD56BD66BD76BD86BD96BDA6BDB6B81
:101B5000DC6BDD6BDE6BDF6BE06BE16BE26BE36B31
:101B6000E46BE56BE66BE76BE86BE96BEA6BEB6BE1
:101B7000EC6BED6BEE6BEF6BF06BF16B020EFF6FCE
:101B80000301006B016B026B470E036F410E046F84
:101B90004D0E056F450E066F200E076F4F0E086F36
:101BA000560E096F450E0A6F520E0B6F0C6B0D6BC4
:101BB0001E0E0E6F0F6B106B116B126B136B146B91
:101BC0002E0E156F166F176F420E186F590E196F84
:101BD000200E1A6F520E1B6F410E1C6F440E1D6FAC
:101BE0004F0E1E6F530E1F6F4C0E206F410E216F54
:101BF000560E226F200E236F470E246F410E256F65
:101C0000540E266F450E276F560E286F200E296F33
:101C1000410E2A6F4E0E2B6F440E2C6F200E2D6F2F
:101C2000540E2E6F530E2F6F4F0E306F4E0E316FBE
:101C3000490E326F4F0E336F200E346F540E356FD6
:101C4000530E366F4F0E376F4E0E386F450E396F8D
:101C5000560E3A6F200E3B6F3A0E3C6F290E3D6FC9
:101C60003E6B000100EF07F053EC08F04B0E030150
:101C70003F6F0001A3D6030E03014A6F150E496F93
:0A1C80001E0E4B6F000140DE030052
:020000040030CA
:0E000000240E3E1E008381000FC00FE00F4053
:00000001FF
;PIC18F2550
